:100000000C9458000C9480000C9480000C94800098
:100010000C9480000C9480000C9480000C94800060
:100020000C9480000C9480000C9480000C94800050
:100030000C9480000C9480000C9480000C94800040
:100040000C9407060C9480000C94D5050C94AF0515
:100050000C9480000C9480000C9480000C94800020
:100060000C9451060C94800000000000250028002C
:100070002B00040404040404040402020202020229
:10008000030303030303010204081020408001025C
:1000900004081020010204081020000000080002DB
:1000A00001000003040700000000000000007F07BB
:1000B00011241FBECFEFD8E0DEBFCDBF11E0A0E01E
:1000C000B1E0E4E8F8E102C005900D92A638B1076E
:1000D000D9F722E0A6E8B1E001C01D92AA3FB2071D
:1000E000E1F710E0C8E5D0E004C02197FE010E94CE
:1000F000350CC735D107C9F70E94C8070C94400CCE
:100100000C940000282F30914202313208F04AC08E
:1001100080911E028111FCCF9091410242E04093F8
:100120001E0220931D022FEF20931C0210921B022F
:1001300030931A02E1E2F2E0AAEFB1E020E03217D8
:1001400021F041914D932F5FFACF1092F901209148
:10015000F901990F922B9093F9019091F801913048
:1001600061F41092F8019091F9019093BB00909185
:10017000BC0093FDF8CF95EC01C095EE9093BC00C8
:1001800090911E029230E1F390911C029F3F79F012
:1001900080911C02803241F080911C02803331F04A
:1001A00084E005C081E003C082E001C083E01092DA
:1001B00020021092420210921F020895DC01ED917C
:1001C000FC910190F081E02D09940F931F93CF9340
:1001D000DF93EC018A01888191E090931F02809364
:1001E0004102109220021092420289819A8124E0F9
:1001F000629FB00111246A5F7F4FDC01ED91FC9199
:100200000190F081E02D099560E070E089819A818C
:100210000E94DE0060E070E089819A810E94DE0029
:10022000B80189819A810E94DE00612F70E0898186
:100230009A810E94DE0081E0DF91CF911F910F91A2
:100240000C94820090E0FC01E656FF4F2491FC01E3
:10025000EA57FF4F3491FC01EE58FF4FE491EE2333
:10026000B1F1222339F1233091F038F42130A9F093
:10027000223001F584B58F7D12C0273091F02830EF
:10028000A1F02430B9F4809180008F7D03C080916B
:1002900080008F77809380000DC084B58F7784BDF8
:1002A00009C08091B0008F7703C08091B0008F7D2E
:1002B0008093B000F0E0EE0FFF1FE859FF4FA591CB
:1002C000B4918FB7F894EC91E32BEC938FBF089522
:1002D00008950895CF92DF92EF92FF920F931F93AC
:1002E000CF93DF936C017A018B01C0E0D0E0CE1593
:1002F000DF0581F0D8016D918D01D601ED91FC9162
:100300000190F081E02DC6010995892B11F021960D
:10031000EECF7E01C701DF91CF911F910F91FF902A
:10032000EF90DF90CF900895FC01538D448D252FE1
:1003300030E0842F90E0821B930B541710F0CF967F
:10034000089501970895FC01918D828D981761F0B1
:10035000828DDF01A80FB11D5D968C91928D9F5FFC
:100360009F73928F90E008958FEF9FEF0895FC01A7
:10037000918D828D981731F0828DE80FF11D858D5A
:1003800090E008958FEF9FEF0895FC01918D228DED
:10039000892F90E0805C9F4F821B91098F73992772
:1003A000089583E492E00E94C50121E0892B09F4BD
:1003B00020E0822F0895FC01848DDF01A80FB11D7C
:1003C000A35ABF4F2C91848D90E001968F7399278B
:1003D000848FA689B7892C93A089B1898C91837069
:1003E00080648C93938D848D981306C00288F38962
:1003F000E02D80818F7D80830895EF92FF920F938F
:100400001F93CF93DF93EC0181E0888F9B8D8C8DC0
:10041000981305C0E889F989808185FD26C0F62EEC
:100420000B8D10E00F5F1F4F0F731127E02E8C8D87
:10043000E8120CC00FB607FCFACFE889F989808171
:1004400085FFF5CFCE010E94DB01F1CF8B8DFE0140
:10045000E80FF11DE35AFF4FF0829FB7F8940B8F1E
:10046000EA89FB89808180620AC09FB7F894EE898F
:10047000FF896083E889F989808183708064808343
:100480009FBF81E090E0DF91CF911F910F91FF908E
:10049000EF900895CF93DF93EC01888D8823C9F006
:1004A000EA89FB89808185FD05C0A889B9898C917D
:1004B00086FD0FC00FB607FCF5CF808185FFF2CF18
:1004C000A889B9898C9185FFEDCFCE010E94DB010F
:1004D000E7CFDF91CF91089580E090E0892B29F05C
:1004E0000E94D10181110C94000008958E3008F013
:1004F0008E508770806480937C0080917A00806445
:1005000080937A0080917A0086FDFCCF80917800FC
:100510002091790090E0922B08953FB7F894809154
:10052000EE019091EF01A091F001B091F10126B59B
:10053000A89B05C02F3F19F00196A11DB11D3FBF1B
:10054000BA2FA92F982F8827820F911DA11DB11DA9
:10055000BC01CD0142E0660F771F881F991F4A95A5
:10056000D1F708958F929F92AF92BF92CF92DF9270
:10057000EF92FF926B017C010E948D024B015C01A6
:10058000C114D104E104F104F1F00E948D02DC01F8
:10059000CB0188199909AA09BB09883E9340A10596
:1005A000B10570F321E0C21AD108E108F10888EE24
:1005B000880E83E0981EA11CB11CC114D104E10473
:1005C000F10419F7DDCFFF90EF90DF90CF90BF904F
:1005D000AF909F908F9008951F93CF93DF93EC017E
:1005E000142F888191E090931F0280934102109212
:1005F00020021092420289819A81DC01ED91FC91E6
:100600000190F081E02D099589819A81DC01ED91BD
:10061000FC910190F081E02D612F099581E0DF913F
:10062000CF911F910C94820085ED8093BC00809146
:10063000BC0084FDFCCF10921E0208954091A601DB
:10064000262F30E0240F311D21323105DCF42091BA
:100650001E022430C9F4FC0180E090E0861758F4B3
:100660003091A6012191DC01AA57BE4FA30FB11D05
:100670002C930196F3CF8091A601680F6093A60199
:1006800080E0089581E0089582E008950895E09162
:10069000F7018091F601E81730F4F0E0E753FE4FE0
:1006A000808190E008958FEF9FEF08959091F7017A
:1006B0008091F601981750F4E92FF0E0E753FE4FD0
:1006C000208130E09F5F9093F70102C02FEF3FEF52
:1006D000C90108958091F60190E02091F701821BF5
:1006E00091090895CF92DF92EF92FF920F931F939B
:1006F000CF93DF937C01CB018A0120911F0222233B
:1007000089F0EB016B01C40ED51ECC15DD0569F037
:100710006991D701ED91FC910190F081E02DC70125
:100720000995F3CF642F0E941E03C801DF91CF917A
:100730001F910F91FF90EF90DF90CF900895CF938E
:10074000DF931F92CDB7DEB7698320911F0222236A
:10075000D1F020914202203240F021E030E0FC0153
:100760003383228380E090E015C080912002E82F3F
:10077000F0E0EF5DFD4F998190838F5F80932002C1
:100780008093420205C061E0CE0101960E941E03E3
:1007900081E090E00F90DF91CF910895089580E07F
:1007A00090E00895009769F0FC0101900020E9F7BE
:1007B0003197AF01481B590BBC0183E492E00C94C4
:1007C0006A0180E090E008958F929F92AF92BF926D
:1007D0000F931F93CF93DF93CDB7DEB7A1970FB6DB
:1007E000F894DEBF0FBECDBF19A2423008F44AE034
:1007F0008E010F5D1F4F842E912CA12CB12CA501D1
:1008000094010E94C609E62FB901CA0101501109DD
:10081000EA3014F4E05D01C0E95CD801EC93232BCD
:10082000242B252B61F7C8010E94D203A1960FB695
:10083000F894DEBF0FBECDBFDF91CF911F910F9116
:10084000BF90AF909F908F900895CF92DF92EF92DC
:10085000FF92CF93DF936C01990FEE08FF08F7FE2C
:1008600013C06DE283E492E00E94FD01EC01662773
:100870007727CB016C197D098E099F094AE00E94F8
:10088000E403C80FD91F06C04AE0C701B6010E94A1
:10089000E403EC0182E591E00E94D2038C0F9D1FDE
:1008A000DF91CF91FF90EF90DF90CF9008958F92DE
:1008B0009F92AF92BF92CF92DF92EF92FF921F93DF
:1008C000CF93DF93EC016A017B0120E030E040E848
:1008D0005FE3C701B6010E94640A87FD12C020E0F1
:1008E00030EC4AE555E4C701B6010E94BC0B18166E
:1008F00074F4C12C30ECD32E3AE5E32E35E4F32E1C
:1009000006C0C12CD12C20E8E22E2FE3F22E6B8101
:100910007C818D819E810E940A0B4B015C0120E04D
:1009200030E040E855E4C701B6010E94C10B9B01CD
:10093000AC01C501B4010E94690A20E030E040E04A
:100940005FE30E94F80920E030E040E85FE30E94A6
:10095000F7096B017C0120E030E040E450E40E94A4
:10096000640A87FD11C020E030E04FE753E4C7017F
:10097000B6010E94BC0B181664F4C12CD12C9FE761
:10098000E92E93E4F92E05C0C12CD12C80E4E82E89
:10099000FE2CC701B6010E94DB0AF62E888191E089
:1009A00090931F0280934102109220021092420203
:1009B00089819A81DC01ED91FC910190F081E02D1B
:1009C00060E0099581E00E948200888190911E027A
:1009D0009111FCCF91E090931E0290931D022FEF96
:1009E00020931C0210921B0210921A029093F9019C
:1009F0009091F901880F892B8093F9018091F8017A
:100A0000813061F41092F8018091F9018093BB006C
:100A10008091BC0083FDF8CF85EC01C085EE80930A
:100A2000BC0080911E028130E1F380911B02811194
:100A300003C090911B0201C091E0AAEFB1E0E9EC84
:100A4000F1E080E0891721F02D9121938F5FFACF9B
:100A50001092F7018093F60189819A81DC01ED9172
:100A6000FC910284F385E02D0995182F482F4F76CD
:100A7000406160E0CE010E94EC024F2D6EEFCE018E
:100A80000E94EC02412F60E0CE010E94EC0265E082
:100A900070E080E090E00E94B202412F406A60E086
:100AA000CE01DF91CF911F91FF90EF90DF90CF901B
:100AB000BF90AF909F908F900C94EC02CF93DF93F8
:100AC000EC011092F7011092F601109220021092A0
:100AD000420210921E0281E080931D021092F801E2
:100AE00082E10E94220183E10E942201E9EBF0E011
:100AF00080818E7F808380818D7F808388E4809356
:100B0000B80085E48093BC0088E691E09093F501FD
:100B10008093F40189E691E09093F3018093F201D0
:100B200040E860E0CE010E94EC026AE070E080E004
:100B300090E00E94B20240E050E06AE774E4CE0127
:100B40000E94570480E498E7ADE7B1E08B839C8373
:100B5000AD83BE83DF91CF9108950E943B0C1F921D
:100B60000F920FB60F9211242F933F934F935F93E1
:100B70006F937F938F939F93AF93BF93EF93FF9365
:100B800083E492E00E94DB01FF91EF91BF91AF916E
:100B90009F918F917F916F915F914F913F912F9195
:100BA0000F900FBE0F901F9018951F920F920FB6C7
:100BB0000F9211242F938F939F93EF93FF93E091C4
:100BC0005302F09154028081E0915902F0915A024F
:100BD00082FD12C0908180915C028F5F8F732091A3
:100BE0005D02821751F0E0915C02F0E0ED5BFD4F99
:100BF000958F80935C0201C08081FF91EF919F915E
:100C00008F912F910F900FBE0F901F9018951F92EC
:100C10000F920FB60F9211242F933F938F939F93B0
:100C2000AF93BF938091EA019091EB01A091EC0109
:100C3000B091ED013091E90123E0230F2D3720F42D
:100C40000196A11DB11D05C026E8230F0296A11D26
:100C5000B11D2093E9018093EA019093EB01A093E9
:100C6000EC01B093ED018091EE019091EF01A09124
:100C7000F001B091F1010196A11DB11D8093EE012B
:100C80009093EF01A093F001B093F101BF91AF9168
:100C90009F918F913F912F910F900FBE0F901F90BA
:100CA00018951F920F920FB60F9211242F933F9316
:100CB0004F935F936F937F938F939F93AF93BF9364
:100CC000EF93FF938091B900887F803609F49CC030
:100CD00068F5883209F45BC090F4803109F454C09F
:100CE00038F4882309F4F6C0883009F44DC0F6C002
:100CF000883109F44CC0803209F45DC0EFC0803403
:100D000009F468C048F4803309F455C0883309F009
:100D1000E5C080931C02D8C0803509F44FC08835E7
:100D200009F45DC0883409F0D9C0D6C0883909F407
:100D3000C7C0A8F4883709F467C038F4883609F4C6
:100D400063C0803709F460C0C9C0883809F4B8C0EE
:100D5000803909F45FC0803809F0C0C05BC0803BB7
:100D600009F486C038F4803A09F466C0883A09F478
:100D70007FC0B4C0803C09F4A7C0883C09F4A4C07B
:100D8000883B09F48AC0AAC08091F90110C09091F3
:100D90001B0280911A02981770F5E0911B0281E006
:100DA0008E0F80931B02F0E0E650FE4F808180930F
:100DB000BB0085EC86C080931C028EC0E0911B02B4
:100DC00081E08E0F80931B028091BB00F0E0E65023
:100DD000FE4F808390911B0280911A026EC0E091B9
:100DE0001B0281E08E0F80931B028091BB00F0E01C
:100DF000E650FE4F808380911D0281116DC081E01D
:100E00008093F80184EA61C083E080931E0210920F
:100E1000C801CFCF8091C801803208F051C0E09165
:100E2000C80181E08E0F8093C8018091BB00F0E083
:100E3000E855FE4F8083BDCF85EC8093BC001092B7
:100E40001E028091C801803230F4E091C801F0E0C8
:100E5000E855FE4F10826091C80170E0E091F20108
:100E6000F091F30188EA91E009951092C80136C02B
:100E700084E080931E021092A7011092A601E091D7
:100E8000F401F091F50109958091A601811105C049
:100E900081E08093A60110928601E091A70181E094
:100EA0008E0F8093A701F0E0EA57FE4F8081809378
:100EB000BB009091A7018091A601981708F479CF03
:100EC00085E88093BC000AC085EC8093BC0010923A
:100ED0001E0204C010921C020E941403FF91EF91A5
:100EE000BF91AF919F918F917F916F915F914F9142
:100EF0003F912F910F900FBE0F901F901895E3E434
:100F0000F2E01382128288EE93E0A0E0B0E08483E6
:100F10009583A683B78322E331E03183208325ECD8
:100F200030E03587248724EC30E03787268720ECB3
:100F300030E0318B208B21EC30E0338B228B22ECA4
:100F400030E0358B248B26EC30E0378B268B118EEE
:100F5000128E138E148EE0EEF2E0138212828483DE
:100F60009583A683B78384E491E091838083A3EF84
:100F7000B2E080E48C931296FC93EE931197ACEE62
:100F8000B2E081E48C931296FC93EE93119708954E
:100F9000789484B5826084BD84B5816084BD85B554
:100FA000826085BD85B5816085BD80916E00816060
:100FB00080936E0010928100809181008260809306
:100FC0008100809181008160809381008091800008
:100FD0008160809380008091B10084608093B10033
:100FE0008091B00081608093B00080917A0084602D
:100FF00080937A0080917A00826080937A00809159
:101000007A00816080937A0080917A008068809372
:101010007A001092C100E0915302F091540282E0F4
:101020008083E0914F02F09150021082E0915102D2
:10103000F09152028FEC808310925B02E091570294
:10104000F091580286E08083E0915502F0915602BB
:10105000808180618083E0915502F0915602808109
:1010600088608083E0915502F0915602808180680B
:101070008083E0915502F091560280818F7D8083BC
:1010800085E591E00E94D20382E591E00E94D203BF
:1010900083EF92E00E945E0520ECC22E2CEFD22E50
:1010A0002BE9E22EFF24F394C092F602D092F702CD
:1010B000E092F802F092F90240E050E068E472E455
:1010C00083EF92E00E9457048CEE92E00E945E054E
:1010D000C092EF02D092F002E092F102F092F2029E
:1010E00040E050E068E472E48CEE92E00E94570425
:1010F0006AE070E080E090E00E94B202C7E1D0E0D8
:10110000CE010E942504FC2E29EEF20E44EF51E0A0
:101110006F2D83EF92E00E94E5008BE691E00E9444
:10112000D203CE010E949F09682F70E080E090E01A
:101130004AE00E94E40382E591E00E94D2036AE063
:1011400070E080E090E00E94B20280E10E947602AE
:101150008C0181E10E947602F801E81BF90BCF01B6
:101160000E94250480E10E9476028C0181E10E94A8
:101170007602081B190BCE010E949F09282F30E030
:1011800002171307A4F480E10E9476028C0181E12A
:101190000E9476029801281B390BC9010E94250480
:1011A00061E070E080E090E00E94B202DBCF40E0BE
:1011B00050E16F2D83EF92E00E94E5002196C2324C
:1011C000D10509F09DCFCE010E942504FC2E3EEDF5
:1011D000F30E44EF51E06F2D8CEE92E00E94E5009B
:1011E0008BE691E00E94D203CE010E949F09682FF6
:1011F00070E080E090E04AE00E94E40382E591E044
:101200000E94D2036AE070E080E090E00E94B202A7
:1012100080E10E9476028C0181E10E947602F80151
:10122000E81BF90BCF010E94250480E10E947602A1
:101230008C0181E10E947602081B190BCE010E94ED
:101240009F09282F30E002171307A4F480E10E94C1
:1012500076028C0181E10E9476029801281B390BED
:10126000C9010E94250461E070E080E090E00E94E6
:10127000B202DBCF40E050E16F2D8CEE92E00E9495
:10128000E5002196CE32D10509F09DCF08E111E0AD
:10129000CBE094E6C92ED12CE12CF12CF801B290D0
:1012A000A2908F0144E650E06C2F8CEE92E00E94F9
:1012B000E5002AEC38E0D5010E942E0CA70196012A
:1012C0000E94A709B901330F880B990B0E94B20243
:1012D00040E050E16C2F8CEE92E00E94E500C1509E
:1012E000E8F60EE211E0CAE084E6C82ED12CE12C2B
:1012F000F12CF801B290A2908F0144E650E06C2FDF
:1013000083EF92E00E94E5002AEC38E0D5010E94CC
:101310002E0CA70196010E94A709B901330F880B73
:10132000990B0E94B20240E050E16C2F83EF92E0F3
:101330000E94E500C150E8F60E946C02FDCFF999C9
:10134000FECF92BD81BDF89A992780B50895052EEC
:1013500097FB1EF400940E94BE0957FD07D00E941F
:10136000C60907FC03D04EF40C94BE095095409575
:10137000309521953F4F4F4F5F4F08959095809541
:10138000709561957F4F8F4F9F4F0895A1E21A2E60
:10139000AA1BBB1BFD010DC0AA1FBB1FEE1FFF1F19
:1013A000A217B307E407F50720F0A21BB30BE40B69
:1013B000F50B661F771F881F991F1A9469F76095B0
:1013C0007095809590959B01AC01BD01CF0108956A
:1013D000A29FB001B39FC001A39F700D811D112476
:1013E000911DB29F700D811D1124911D08955058BB
:1013F000BB27AA270E940F0A0C94820B0E94740B31
:1014000038F00E947B0B20F039F49F3F19F426F44A
:101410000C94710B0EF4E095E7FB0C946B0BE92F29
:101420000E94930B58F3BA17620773078407950756
:1014300020F079F4A6F50C94B50B0EF4E0950B2E84
:10144000BA2FA02D0B01B90190010C01CA01A00116
:101450001124FF27591B99F0593F50F4503E68F171
:101460001A16F040A22F232F342F4427585FF3CFB2
:10147000469537952795A795F0405395C9F77EF483
:101480001F16BA0B620B730B840BBAF09150A1F0CC
:10149000FF0FBB1F661F771F881FC2F70EC0BA0F52
:1014A000621F731F841F48F4879577956795B795DA
:1014B000F7959E3F08F0B0CF9395880F08F09927D5
:1014C000EE0F9795879508950E94470B08F481E0E9
:1014D00008950E947D0A0C94820B0E947B0B58F0A9
:1014E0000E94740B40F029F45F3F29F00C946B0BC1
:1014F00051110C94B60B0C94710B0E94930B68F372
:101500009923B1F3552391F3951B550BBB27AA27BC
:1015100062177307840738F09F5F5F4F220F331FF6
:10152000441FAA1FA9F335D00E2E3AF0E0E832D0BE
:1015300091505040E695001CCAF72BD0FE2F29D0C1
:10154000660F771F881FBB1F261737074807AB0793
:10155000B0E809F0BB0B802DBF01FF2793585F4F08
:101560003AF09E3F510578F00C946B0B0C94B60B3F
:101570005F3FE4F3983ED4F3869577956795B795EA
:10158000F7959F5FC9F7880F911D9695879597F9F5
:101590000895E1E0660F771F881FBB1F621773076E
:1015A0008407BA0720F0621B730B840BBA0BEE1F83
:1015B00088F7E09508950E949B0B88F09F5798F05C
:1015C000B92F9927B751B0F0E1F0660F771F881F48
:1015D000991F1AF0BA95C9F714C0B13091F00E9462
:1015E000B50BB1E008950C94B50B672F782F8827C1
:1015F000B85F39F0B93FCCF3869577956795B39589
:10160000D9F73EF490958095709561957F4F8F4FF7
:101610009F4F0895E89409C097FB3EF490958095FC
:10162000709561957F4F8F4F9F4F9923A9F0F92FA8
:1016300096E9BB279395F695879577956795B79526
:10164000F111F8CFFAF4BB0F11F460FF1BC06F5F0C
:101650007F4F8F4F9F4F16C0882311F096E911C01E
:10166000772321F09EE8872F762F05C0662371F03F
:1016700096E8862F70E060E02AF09A95660F771F53
:10168000881FDAF7880F9695879597F90895990F2F
:101690000008550FAA0BE0E8FEEF16161706E8073C
:1016A000F907C0F012161306E407F50798F0621B5D
:1016B000730B840B950B39F40A2661F0232B242B32
:1016C000252B21F408950A2609F4A140A6958FEF51
:1016D000811D811D089597F99F6780E870E060E0A3
:1016E00008959FEF80EC089500240A9416161706BB
:1016F00018060906089500240A9412161306140603
:1017000005060895092E0394000C11F4882352F065
:10171000BB0F40F4BF2B11F460FF04C06F5F7F4F1D
:101720008F4F9F4F089557FD9058440F551F59F004
:101730005F3F71F04795880F97FB991F61F09F3FBE
:1017400079F087950895121613061406551FF2CFE7
:101750004695F1DF08C0161617061806991FF1CF37
:1017600086957105610508940895E894BB2766275E
:101770007727CB0197F908950E94470B08F48FEF64
:1017800008950E94D40B0C94820B0E94740B38F0C5
:101790000E947B0B20F0952311F00C946B0B0C94A2
:1017A000710B11240C94B60B0E94930B70F3959F50
:1017B000C1F3950F50E0551F629FF001729FBB2748
:1017C000F00DB11D639FAA27F00DB11DAA1F649FE4
:1017D0006627B00DA11D661F829F2227B00DA11D97
:1017E000621F739FB00DA11D621F839FA00D611D1D
:1017F000221F749F3327A00D611D231F849F600D3E
:10180000211D822F762F6A2F11249F5750409AF066
:10181000F1F088234AF0EE0FFF1FBB1F661F771FF2
:10182000881F91505040A9F79E3F510580F00C94BD
:101830006B0B0C94B60B5F3FE4F3983ED4F38695A4
:1018400077956795B795F795E7959F5FC1F7FE2B5D
:10185000880F911D9695879597F908950E94E8093C
:10186000B7FF0895821B930B0895EE0FFF1F05909D
:10187000F491E02D099481E090E0F8940C94400CF0
:04188000F894FFCF0A
:10188400410031002200140009000200000002009F
:10189400090014002200320041004F005A00610088
:1018A400640061005A004F00410032002200000031
:1018B4000000FD016A0194014A02C501A301B701B8
:1018C400000000009F037203CF0346036A0356031C
:1018D40047030D0A0038206368616E6E656C2053FF
:1018E4006572766F20746573742100546872657331
:1018F400686F6C6420666F722074686973206D6F02
:06190400746F723A20002E
:00000001FF
